{
  "contractName": "OracleResolver",
  "abi": [
    {
      "constant": true,
      "inputs": [],
      "name": "oracleAddress",
      "outputs": [
        {
          "name": "",
          "type": "address"
        }
      ],
      "payable": false,
      "stateMutability": "view",
      "type": "function"
    },
    {
      "inputs": [],
      "payable": false,
      "stateMutability": "nonpayable",
      "type": "constructor"
    },
    {
      "constant": false,
      "inputs": [
        {
          "name": "_addr",
          "type": "address"
        }
      ],
      "name": "setOracleAddress",
      "outputs": [],
      "payable": false,
      "stateMutability": "nonpayable",
      "type": "function"
    },
    {
      "constant": true,
      "inputs": [],
      "name": "getOracleAddress",
      "outputs": [
        {
          "name": "",
          "type": "address"
        }
      ],
      "payable": false,
      "stateMutability": "view",
      "type": "function"
    }
  ],
  "bytecode": "0x608060405234801561001057600080fd5b50336000806101000a81548173ffffffffffffffffffffffffffffffffffffffff021916908373ffffffffffffffffffffffffffffffffffffffff160217905550610268806100606000396000f300608060405260043610610057576000357c0100000000000000000000000000000000000000000000000000000000900463ffffffff1680634c69c00f1461005c578063a89ae4ba1461009f578063b18b78dd146100f6575b600080fd5b34801561006857600080fd5b5061009d600480360381019080803573ffffffffffffffffffffffffffffffffffffffff16906020019092919050505061014d565b005b3480156100ab57600080fd5b506100b46101ec565b604051808273ffffffffffffffffffffffffffffffffffffffff1673ffffffffffffffffffffffffffffffffffffffff16815260200191505060405180910390f35b34801561010257600080fd5b5061010b610212565b604051808273ffffffffffffffffffffffffffffffffffffffff1673ffffffffffffffffffffffffffffffffffffffff16815260200191505060405180910390f35b6000809054906101000a900473ffffffffffffffffffffffffffffffffffffffff1673ffffffffffffffffffffffffffffffffffffffff163373ffffffffffffffffffffffffffffffffffffffff161415156101a857600080fd5b80600160006101000a81548173ffffffffffffffffffffffffffffffffffffffff021916908373ffffffffffffffffffffffffffffffffffffffff16021790555050565b600160009054906101000a900473ffffffffffffffffffffffffffffffffffffffff1681565b6000600160009054906101000a900473ffffffffffffffffffffffffffffffffffffffff169050905600a165627a7a72305820f3c991dfaad385b877e1aec490a871780314760e3d72a382989ac797d9ce79e00029",
  "source": "pragma solidity ^0.4.10;\n\ncontract OracleResolver {\n    address owner;\n\n    address public oracleAddress;\n\n    function OracleResolver() {\n        owner = msg.sender;\n    }\n\n    modifier onlyOwner {\n        if (msg.sender != owner) throw;\n        _;\n    }\n\n    function setOracleAddress(address _addr) onlyOwner {\n        oracleAddress = _addr;\n    }\n\n    function getOracleAddress() constant returns(address) {\n        return oracleAddress;\n    }\n}\n",
  "sourcePath": "/home/tsinghua-yincheng/桌面/oracle/contracts/OracleResolver.sol",
  "compiler": {
    "name": "solc",
    "version": "0.4.23+commit.124ca40d.Emscripten.clang"
  },
  "schemaVersion": "2.0.0",
  "updatedAt": "2018-05-24T05:43:15.715Z"
}