{
  "contractName": "Oracle",
  "abi": [
    {
      "constant": true,
      "inputs": [],
      "name": "cbAddress",
      "outputs": [
        {
          "name": "",
          "type": "address"
        }
      ],
      "payable": false,
      "stateMutability": "view",
      "type": "function"
    },
    {
      "inputs": [],
      "payable": false,
      "stateMutability": "nonpayable",
      "type": "constructor"
    },
    {
      "anonymous": false,
      "inputs": [
        {
          "indexed": false,
          "name": "id",
          "type": "bytes32"
        },
        {
          "indexed": false,
          "name": "query",
          "type": "string"
        }
      ],
      "name": "QueryEvent",
      "type": "event"
    },
    {
      "constant": false,
      "inputs": [
        {
          "name": "_cbAddress",
          "type": "address"
        }
      ],
      "name": "setCbAddress",
      "outputs": [],
      "payable": false,
      "stateMutability": "nonpayable",
      "type": "function"
    },
    {
      "constant": false,
      "inputs": [
        {
          "name": "_query",
          "type": "string"
        }
      ],
      "name": "query",
      "outputs": [
        {
          "name": "id",
          "type": "bytes32"
        }
      ],
      "payable": false,
      "stateMutability": "nonpayable",
      "type": "function"
    }
  ],
  "bytecode": "0x608060405234801561001057600080fd5b50336000806101000a81548173ffffffffffffffffffffffffffffffffffffffff021916908373ffffffffffffffffffffffffffffffffffffffff1602179055506103da806100606000396000f300608060405260043610610057576000357c0100000000000000000000000000000000000000000000000000000000900463ffffffff1680637c2619291461005c578063b62a717c146100e1578063c281d19e14610124575b600080fd5b34801561006857600080fd5b506100c3600480360381019080803590602001908201803590602001908080601f016020809104026020016040519081016040528093929190818152602001838380828437820191505050505050919291929050505061017b565b60405180826000191660001916815260200191505060405180910390f35b3480156100ed57600080fd5b50610122600480360381019080803573ffffffffffffffffffffffffffffffffffffffff1690602001909291905050506102e9565b005b34801561013057600080fd5b50610139610388565b604051808273ffffffffffffffffffffffffffffffffffffffff1673ffffffffffffffffffffffffffffffffffffffff16815260200191505060405180910390f35b6000434283336040518085815260200184815260200183805190602001908083835b6020831015156101c2578051825260208201915060208101905060208303925061019d565b6001836020036101000a0380198251168184511680821785525050505050509050018273ffffffffffffffffffffffffffffffffffffffff1673ffffffffffffffffffffffffffffffffffffffff166c01000000000000000000000000028152601401945050505050604051809103902090507f3040d97d9df6583359820eecf54620d1e08c89c5d0b4ad40b23f48cd8a7408b4818360405180836000191660001916815260200180602001828103825283818151815260200191508051906020019080838360005b838110156102a657808201518184015260208101905061028b565b50505050905090810190601f1680156102d35780820380516001836020036101000a031916815260200191505b50935050505060405180910390a1809050919050565b6000809054906101000a900473ffffffffffffffffffffffffffffffffffffffff1673ffffffffffffffffffffffffffffffffffffffff163373ffffffffffffffffffffffffffffffffffffffff1614151561034457600080fd5b80600160006101000a81548173ffffffffffffffffffffffffffffffffffffffff021916908373ffffffffffffffffffffffffffffffffffffffff16021790555050565b600160009054906101000a900473ffffffffffffffffffffffffffffffffffffffff16815600a165627a7a72305820e946a21117874e2e1ee1240d69f418e734e40aea560084f9f2efba1e41a41db20029",
  "source": "pragma solidity ^0.4.0;\n\ncontract Oracle {\n    address owner;\n    address public cbAddress; // callback address\n\n    function Oracle() {\n        owner = msg.sender;\n    }\n\n    modifier onlyOwner {\n        if (msg.sender != owner) throw;\n        _;\n    }\n\n    event QueryEvent(bytes32 id, string query);\n\n    function setCbAddress(address _cbAddress) onlyOwner {\n        cbAddress = _cbAddress;\n    }\n\n    function query(string _query) returns (bytes32 id) {\n        id = sha3(block.number, now, _query, msg.sender);\n        QueryEvent(id, _query);\n        return id;\n    }\n}\n",
  "sourcePath": "/home/tsinghua-yincheng/桌面/oracle/contracts/Oracle.sol",
  "compiler": {
    "name": "solc",
    "version": "0.4.23+commit.124ca40d.Emscripten.clang"
  },
  "schemaVersion": "2.0.0",
  "updatedAt": "2018-05-24T05:40:20.932Z"
}